:100000001301802D1305800D9305800D6308B50045
:100010002320050013054500E34CB5FEEF008000EA
:100020006F000000B70704001307700023A0E7006B
:100030001307800023A4E710B7070400130710007C
:1000400023A6E7101307200023A6E710B706040035
:1000500093860611370704001307471083A706008D
:100060000326070093F72700E38A07FEB70704007B
:100070001307000123A4E710B707040013071000BB
:1000800023A6E7101307200023A6E710B7060400F5
:1000900093860611370704001307471083A706004D
:1000A0000326070093F72700E38A07FEB70704003B
:1000B0001307A00523A2E700370704000327070062
:1000C00023A2E700B71700003707C1001307E7FEB8
:0800D00023AEE7FE6F00000003
:00000001FF
